:100000000C9465000C948D000C948D000C948D0064
:100010000C948D000C948D000C948D000C94EB12BC
:100020000C948D000C948D000C948D000C9483071F
:100030000C948D000C948D000C948D000C948D000C
:100040000C94CF0D0C948D000C9420100C94671020
:100050000C948D000C948D000C948D000C948D00EC
:100060000C94DF090C948D00000000002400270090
:100070002A0000000000250028002B0000000000DE
:1000800023002600290004040404040404040202DA
:100090000202020203030303030301020408102007
:1000A0004080010204081020010204081020000012
:1000B0000007000201000003040600000000000029
:1000C000000002008F007B082A1211241FBECFEF10
:1000D000D4E0DEBFCDBF11E0A0E0B1E0E8EAF0E39C
:1000E00002C005900D92AE3BB107D9F713E0AEEB1D
:1000F000B1E001C01D92AE3BB107E1F710E0CAECE0
:10010000D0E004C02297FE010E944E18C43CD107E3
:10011000C9F70E947A120C9452180C940000CF93E5
:10012000DF938EEB91E06DE10E948E0BCCEDD1E080
:10013000CE010E94B305239681E0C43FD807C1F7E2
:10014000DF91CF9108950F931F93062FE2E0F1E026
:10015000E80FF11D1081812F61E00E94390FE02F1F
:10016000F0E0EE0FFF1FE85FFE4F60817181812F8D
:1001700020E030E040E050E00E9447131F910F91D3
:100180000895EF92FF920F931F938B014AE8E42E9C
:1001900043E0F42EBC016F70707033E0660F771F80
:1001A0003A95E1F76068C801880F892F881F990B7D
:1001B0008770682BC7010E94F1110F77C701602F6C
:1001C0000E94F1111F910F91FF90EF9008952F92CF
:1001D0003F924F925F926F927F928F929F92AF92D7
:1001E000BF92CF92DF92EF92FF920F931F93DF9314
:1001F000CF93CDB7DEB7E4970FB6F894DEBF0FBE4E
:10020000CDBF9AA789A71B014BA72CA7E9E04E2ECB
:10021000512C4C0E5D1E772488249924842F90E065
:100220009CAB8BAB68C0E9A5FAA5E80DF91D8081F0
:10023000A3E08A9FC001112484529E4F0E9447066A
:10024000682EF101E80DF91D608170E0681B7109ED
:10025000882777FD8095982F0E94A6167B018C0138
:1002600020E030E040E050E00E94561718161CF4E1
:100270005701680106C057016801D7FAD094D7F832
:10028000D094672D70E0882777FD8095982F0E9485
:10029000A6169B01AC01C601B5010E94561718169F
:1002A0008CF4C801B70120E030E040E050E00E944B
:1002B000561718161CF4C801B7010AC0C801B701C7
:1002C000905806C0672D70E080E090E00E94A41670
:1002D0000E947816762EE1E0F0E0EC0FFD1FE80DAD
:1002E000F91D6082F201E192F192019311932F01C5
:1002F0000894811C911C8BA99CA9881699060CF462
:1003000092CF8E01075F1F4F7801ABA58A2F90E037
:10031000880F991F880F991FE80EF91EA72CBB2480
:10032000CC24DD2413C0C601B5010E94A4169B0194
:10033000AC01F80160817181828193810E940B166A
:10034000D8016D937D938D939D938D010E151F059F
:1003500051F761E0862E912CE72DF0E0FEA7EDA786
:100360009CA5892F90E0A0E0B0E08FA798ABA9AB47
:10037000BAAB4CC0E9A5FAA5EA0DFB1D0081A3E0CC
:100380000A9F8001112404521E4FE1E0F0E0EC0FBF
:10039000FD1FEA0DFB1D608170E0882777FD8095C9
:1003A000982F0E94A6166B017C01C301B2010E9426
:1003B000A616F10121913191419151911F010E94A5
:1003C0005A179B01AC01C701B6010E94A7150E94F4
:1003D00073169B01AC01C801B9010E949C060894E8
:1003E000A11CB11C8BA99CA9A816B9061CF280E817
:1003F00090E060E870E00E94C1006FA578A989A92B
:100400009AA90E94230E0894811C911CADA5BEA53B
:10041000A815B9056CF059E0252E312C2C0E3D1E87
:10042000AA24BB242401662457FC6094762CDACFDE
:10043000E4960FB6F894DEBF0FBECDBFCF91DF912B
:100440001F910F91FF90EF90DF90CF90BF90AF90F2
:100450009F908F907F906F905F904F903F902F90E4
:100460000895CF92DF92EF92FF920F931F93CF9355
:10047000DF938C01EB017A0169018AE893E00E9425
:100480008511181619060CF05EC08AE893E00E94E8
:10049000B6119C0136E0959587953A95E1F7837002
:1004A000833009F050C0822F8F73F80180838AE86F
:1004B00093E00E948511892BD1F38AE893E00E9492
:1004C000B6119C01B6E095958795BA95E1F78370D2
:1004D0008230C9F5822F8F7388838AE893E00E9467
:1004E0008511892BD1F38AE893E00E94B6119C0113
:1004F000A6E095958795AA95E1F78370813019F567
:10050000822F8F73F70180838AE893E00E94851120
:10051000892BD1F38AE893E00E94B6119C01F6E0A2
:1005200095958795FA95E1F7837069F4822F8F731B
:10053000F6018083F80160818EE090E070E00E9417
:10054000C10081E001C080E0DF91CF911F910F9148
:10055000FF90EF90DF90CF9008956131B1F162315B
:1005600038F46330F0F1653050F06031D1F515C0EA
:100570006431D1F0643188F0653199F526C0E82FF7
:10058000F0E0DF01AC50BE4F83E08C93E857FE4FA4
:10059000808161E00E94390F0895E82FF0E0EC506F
:1005A000FE4F81E080830895E82FF0E0EC50FE4F8D
:1005B00082E080838FE792E00E941B098EEB91E03E
:1005C00060E042E00E944C0D0895E82FF0E0DF016A
:1005D000AC50BE4F1C92E857FE4F808162E00E94F3
:1005E000390F0895E82FF0E0CF01880F991F8E0F83
:1005F0009F1FE257FE4F608184529E4F70E044EF90
:1006000051E024EC39E00E94040708958823B1F4F6
:1006100088EE91E00E94CD058BEE91E00E94CD0521
:1006200082E061E00E94390F84E061E00E94390FAE
:1006300082E060E00E94780F84E015C08EEE91E0C9
:100640000E94CD0581EF91E00E94CD0587E061E039
:100650000E94390F88E061E00E94390F87E060E076
:100660000E94780F88E060E00E94780F08950F9351
:100670001F93CF93DF938330910509F4C7C0843073
:1006800091055CF48130910509F47BC082309105BD
:100690000CF09DC0892BA1F013C18630910509F49F
:1006A00002C18730910524F4049709F009C1BEC046
:1006B0008730910509F4FAC00B9709F001C1DBC03E
:1006C000E62FF0E064FF07C0A7E0B0E0C8E0D0E0AC
:1006D00005E010E006C0A2E0B0E0C4E0D0E003E036
:1006E00010E0E370F07050E0B6E0440F551FBA958B
:1006F000E1F740745070822F90E0482B592B3097CF
:1007000099F44115510519F48A2F61E01CC041305C
:10071000510509F0D5C08A2F60E00E94780F8C2F18
:1007200061E00E94780FCCC0E130F10589F44115F9
:10073000510519F48A2F61E0F0CF4130510509F0DD
:10074000BFC08A2F60E00E94780F8C2F60E0E9CF55
:10075000329709F0B5C0BA01882777FD8095982FA8
:100760000E94A61623E333E343E250E40E945A17A3
:100770000E9473169B01AC01802FB9010E94D90E13
:100780009FC0962F97702F73642F6295660F660F28
:10079000607C622B8091FE01882379F08091FF01BB
:1007A000E82FF0E0DF01AF5FBD4F9C93E75FFD4FA7
:1007B00060838F5F8093FF0183C083E0989FC001B7
:1007C000112484529E4F70E00E949C0679C0E62F4F
:1007D000E77050E0CA0174E0959587957A95E1F746
:1007E00080FF0DC066E0440F551F6A95E1F7642F46
:1007F0006074622B60538E2F0E94A30061C0F0E0F2
:10080000EE5FFE4F80810E94D4125AC0E62FF0E0C6
:10081000E770F070EE57FE4F642F70E054E075956E
:1008200067955A95E1F7617080817BCFE62FEF7174
:10083000622F6F718091FD018F5F8093FD016530A4
:1008400038F4633098F4613041F06230C9F509C082
:10085000862F80518630A0F509C08E2F0E94060396
:100860002FC08E2F82500E94F2022AC08E2F8A50F3
:100870000E94AD0225C060FD09C01092FF0181E019
:100880008093FE012F73209300021AC01092FE0184
:1008900081E092E069E072E04091FF012091000266
:1008A0000E94E7000DC01092FC010AC08AE893E0A4
:1008B0000E941F118EE090E06EEE70E00E94C10079
:1008C000DF91CF911F910F9108952F923F924F92F8
:1008D0005F926F927F928F929F92AF92BF92CF92D0
:1008E000DF92EF92FF920F931F93DF93CF9300D08D
:1008F00000D0CDB7DEB78091FC01882309F0DBC0C2
:1009000080E890E060E870E00E94C10099246624CD
:10091000772484E6282E312C412C512CF301EC5005
:10092000FE4FE081E13091F0E13030F0892C83948A
:10093000E23009F0B7C03AC0F301E857FE4F8081BA
:100940000E94CC0FBC01892D90E02CC0F301EA5627
:10095000FE4F80810E94B70E00D000D0AA2797FDDD
:10096000A095BA2FEDB7FEB721823282438254821E
:10097000BC01CD0120E030E040E050E00FEFE02E80
:1009800003E0F02E012D112DAA24BB2465010E9445
:100990005D159B01AC010F900F900F900F90892D6A
:1009A00090E0B9010E94C10093947DC08EEB91E06C
:1009B0000E94A50B8EEB91E00E94990B00D000D015
:1009C000AA2797FDA095BA2FEDB7FEB721823282F4
:1009D00043825482BC01CD0120E83FEF4FEF5FEF2F
:1009E0001FE7E12EF12C012D112DAA24BB24650156
:1009F0000E945D159B01AC010F900F900F900F901E
:100A0000892D90E0B9010E94C1008EEB91E00E9417
:100A10009D0B00D000D0AA2797FDA095BA2FEDB767
:100A2000FEB72182328243825482BC01CD0120E88C
:100A30003FEF4FEF5FEF0E945D159B01AC010F9000
:100A40000F900F900F90882D90E0B9010E94C10087
:100A5000982C93948EEB91E00E94A10B00D000D0D3
:100A6000AA2797FDA095BA2FEDB7FEB72182328253
:100A700043825482BC01CD0120E83FEF4FEF5FEF8E
:100A80000E945D159B01AC010F900F900F900F908D
:100A9000892D90E0B9010E94C10093940894611CD3
:100AA000711C01C0982C0894611C711CF8E06F1631
:100AB00071040CF433CFCE010196BE016E5F7F4FFF
:100AC000AE014D5F5F4F9E012C5F3F4F0E94310290
:100AD000882341F0898190E06A814B812C810E94BA
:100AE000370306C064E670E080E090E00E94230EC9
:100AF0000F900F900F900F90CF91DF911F910F915A
:100B0000FF90EF90DF90CF90BF90AF909F908F902D
:100B10007F906F905F904F903F902F9008958AE85C
:100B200093E040E056E960E070E00E94A2108AE89D
:100B300093E00E94DF11E4EFF1E084E0819391E023
:100B4000EC3FF907D9F781E08093FC018EE090E05B
:100B50006FEF70E00E94C1001092FD01109212022E
:100B6000109211020895FC01809113028C3090F4D0
:100B700080838F5F80931302815090E0FC01EE0F21
:100B8000FF1FE80FF91FEC5EFD4F8CED95E092839F
:100B9000818308958FEF80830895DC018C9190E02C
:100BA000FC01EE0FFF1FE80FF91FEC5EFD4F808187
:100BB0008F7B80838C916CE00E94DC1790E0AC010D
:100BC000440F551F480F591F440F551F440F551F01
:100BD00020E030E0C901840F951FFC01EE0FFF1FDC
:100BE000E80FF91FEC5EFD4F808186FD05C02F5F89
:100BF0003F4F2C30310571F70895FC0130813C30B6
:100C000078F58181992787FD909548E850E0481B49
:100C1000590B440F551F440F551F6417750784F077
:100C20008281992787FD909548E552E0481B590B32
:100C3000440F551F440F551F641775070CF4AB0183
:100C40002FB7F894832F90E0FC01EE0FFF1FE80F01
:100C5000F91FEC5EFD4F42505040528341832FBF3D
:100C60000895FC0180818F3F19F420E030E00DC031
:100C700090E0FC01EE0FFF1FE80FF91FEC5EFD4F47
:100C8000218132813F712E5F3F4FC9010895AF929C
:100C9000BF92CF92DF92EF92FF920F931F938C013E
:100CA0000E94310600D000D00196AA2797FDA0959A
:100CB000BA2FF8016181772767FD709528E830E049
:100CC000261B370B220F331F220F331F442737FDFC
:100CD0004095542F6281772767FD7095E8E5EE2EE9
:100CE000E2E0FE2EE61AF70AEE0CFF1CEE0CFF1CEB
:100CF0000027F7FC0095102F64EBA62EB12CC12C19
:100D0000D12CEDB7FEB7A182B282C382D482BC01DE
:100D1000CD01AA24BB2465010E945D150F900F90A0
:100D20000F900F90CB011F910F91FF90EF90DF90EC
:100D3000CF90BF90AF900895AF92BF92CF92DF92C5
:100D4000EF92FF920F931F93CF93DF93EC019B01E0
:100D500082E0603278070CF048C077FF03C020E0E3
:100D600030E005C0653B710514F024EB30E000D0A5
:100D700000D0B901882777FD8095982F29813327E6
:100D800027FD3095E8E8AE2EB12CA21AB30AAA0CC2
:100D9000BB1CAA0CBB1CCC24B7FCC094DC2CEA8185
:100DA000FF27E7FDF09528E532E02E1B3F0B220FD1
:100DB000331F220F331F442737FD4095542FEDB7C3
:100DC000FEB7218332834383548320E030E040E048
:100DD00050E004EBE02EF12C012D112D0E945D1549
:100DE0009B010F900F900F900F90CE01B9010E94C0
:100DF000FD05DF91CF911F910F91FF90EF90DF9054
:100E0000CF90BF90AF900895CF92DF92EF92FF9274
:100E10001F93CF93DF93EC01162F7A01690188812C
:100E20008C3008F064C0862F61E00E94390F888101
:100E300090E0FC01EE0FFF1FE80FF91FEC5EFD4F85
:100E40001F738081807C812B808380E292E08E19E9
:100E50009F0964E070E00E94E817698380E699E0EA
:100E60008C199D0964E070E00E94E8176A83A881EC
:100E70008A2F6CE00E94DC17682F70E0AB01440FF2
:100E8000551F460F571F440F551F440F551F20E095
:100E900030E0C901840F951FFC01EE0FFF1FE80F22
:100EA000F91FEC5EFD4F808186FD15C02F5F3F4F1F
:100EB0002C30310571F724C01092800082E08093BD
:100EC00081001092850010928400B19A80916F0089
:100ED000826080936F008A2F90E0FC01EE0FFF1F6D
:100EE000E80FF91FEC5EFD4F80818064808388816C
:100EF000DF91CF911F91FF90EF90DF90CF900895F9
:100F0000672BD1F2E8CF1F920F920FB60F921124E8
:100F10002F933F934F935F936F937F938F939F9301
:100F2000AF93BF93EF93FF938091380287FF05C083
:100F300010928500109284002BC020913802332734
:100F400027FD30958091130290E02817390704F5AA
:100F500080913802992787FD9095FC01EE0FFF1FC5
:100F6000E80FF91FEC5EFD4F808186FF11C0809174
:100F70003802992787FD9095FC01EE0FFF1FE80FBF
:100F8000F91FEC5EFD4F80818F7360E00E94780F47
:100F9000809138028F5F8093380220913802332786
:100FA00027FD30958091130290E0281739070CF047
:100FB0004EC0809138028C300CF049C020918400E2
:100FC0003091850080913802992787FD9095FC012A
:100FD000EE0FFF1FE80FF91FEC5EFD4F818192813C
:100FE000280F391F309389002093880080913802A0
:100FF000992787FD9095FC01EE0FFF1FE80FF91F61
:10100000EC5EFD4F808186FF2BC0809138029927CE
:1010100087FD9095FC01EE0FFF1FE80FF91FEC5EB6
:10102000FD4F80818F7361E00E94780F19C080E2CC
:101030009EE405C080918400909185000496909371
:101040008900809388008FEF8093380209C08091D7
:10105000840090918500049680529E4440F3EACF2C
:10106000FF91EF91BF91AF919F918F917F916F9180
:101070005F914F913F912F910F900FBE0F901F9056
:10108000189581E080937E0260935B0210927C024F
:1010900010927D02089520915A0230E08091590209
:1010A000281B3109C90108954091590280915A02C3
:1010B000481718F02FEF3FEF0AC0E42FF0E0E75C8D
:1010C000FD4F8081282F30E04F5F40935902C901C6
:1010D0000895E091590280915A02E81718F0EFEF55
:1010E000FFEF06C0F0E0E75CFD4F8081E82FF0E005
:1010F000CF0108950895109282021092810288EE25
:1011000093E0A0E0B0E08093830290938402A093E8
:101110008502B093860282EA91E0909380028093E8
:101120007F020895CF92DF92EF92FF920F931F9369
:10113000CF93DF937C016B018A0180917E0288232B
:10114000A1F0C0E0D0E00DC0D701ED91FC91D60137
:10115000AC0FBD1F0190F081E02DC7016C91099586
:101160002196C017D10780F304C0CB01642F0E94E1
:10117000C409C801DF91CF911F910F91FF90EF90AB
:10118000DF90CF900895DF93CF930F92CDB7DEB766
:10119000FC01698380917E028823C9F080917D02E1
:1011A000803238F081E090E09383828320E030E069
:1011B00015C080917C02E82FF0E0E45AFD4F998140
:1011C00090838F5F80937C0280937D0205C0CE0167
:1011D000019661E00E94C40921E030E0C9010F904E
:1011E000CF91DF9108950F93062F80915B026CE5FC
:1011F00072E040917D0221E00E946F0910927C0212
:1012000010927D0210927E020F91089561E00E947B
:10121000F3080895413208F040E2862F69E372E056
:101220000E9426091092590280935A02089521E0E3
:101230000E940A0908951092590210925A021092BF
:101240007C0210927D020E94700B0895382F41326B
:1012500010F040E042C080918B028823E1F791E0DA
:1012600090938B0220938D028FEF8093F80210925F
:10127000B30241504093B4024F5F90938C0280912F
:101280008C02330F832B80938C0280918E028130ED
:1012900041F410928E0280918C028093BB0085EC09
:1012A00001C085EE8093BC0080918B028130E1F318
:1012B0008091B302841710F44091B30220E030E033
:1012C0000AC0FB01E20FF31FD901AD56BD4F8C914F
:1012D00080832F5F3F4F2417A0F3842F08950F932F
:1012E0001F93582F122F413210F081E04AC0809195
:1012F0008B028823E1F782E080938B0200938D02BA
:101300008FEF8093F8021092B3024093B402A3E9E6
:10131000B2E0FB0102C081918D938E2F861B841752
:10132000D0F310928C0280918C02550F852B809304
:101330008C0280918E02813041F410928E02809155
:101340008C028093BB0085EC01C085EE8093BC00CD
:10135000112321F080918B028230E1F38091F80219
:101360008F3F11F480E00DC08091F802803211F4BB
:1013700082E007C08091F802803311F084E001C060
:1013800083E01F910F910895482F613210F081E0A2
:10139000089580918B02843011F082E0089560936B
:1013A000D602A5EBB2E0842F9C01F90102C0819125
:1013B0008D938E2F841B8617D0F380E008951F92A3
:1013C0000F920FB60F9211242F933F934F935F9379
:1013D0006F937F938F939F93AF93BF93EF93FF93FD
:1013E0008091B90090E0887F90708036910509F473
:1013F000F2C081369105CCF58832910509F47BC0A5
:1014000089329105B4F48031910509F46FC08131BE
:1014100091053CF4009709F447C1089709F04FC1C2
:1014200065C08831910509F466C0809709F047C10D
:1014300082C08034910509F4A4C08134910544F43C
:101440008033910509F482C0C89709F038C189C07A
:101450008035910509F489C08835910509F496C055
:101460008834910509F02BC1AEC08839910509F483
:1014700013C189399105ECF48837910509F4ABC0A3
:10148000893791054CF48836910509F4A4C080375A
:10149000910509F014C19FC08838910509F4FCC07A
:1014A0008039910509F49DC08038910509F007C184
:1014B00098C0803B910509F4C6C0813B91054CF46E
:1014C000803A910509F49FC0883A910509F0F7C068
:1014D000BAC0803C910509F4E3C0883C910509F449
:1014E000DFC0883B910509F0EAC0C2C080918C0240
:1014F0008093BB00CFC09091B3028091B402981743
:1015000068F49091B302E92FF0E0ED56FD4F808131
:101510008093BB009F5F9093B302BCC080918D020B
:10152000882309F44BC085ED8093BC008091BC00FA
:1015300084FDFCCFC2C080E28093F80285ED8093E9
:10154000BC008091BC0084FDFCCFB7C080E38093D9
:10155000F80285ED8093BC008091BC0084FDFCCF37
:10156000ACC088E38093F8029BC08091B302909155
:10157000BB00E82FF0E0ED56FD4F90838F5F809326
:10158000B3029091B3028091B40282C08091B30201
:101590009091BB00E82FF0E0ED56FD4F90838F5FF8
:1015A0008093B30280918D02882341F085ED809372
:1015B000BC008091BC0084FDFCCF7FC081E08093A3
:1015C0008E0284EA6EC085ED8093BC008091BC00E1
:1015D00084FDFCCF72C083E080938B021092F702EF
:1015E00059C08091F702803208F056C08091F7020E
:1015F0009091BB00E82FF0E0E952FD4F90838F5FA0
:101600008093F70247C08091F702803230F4E09176
:10161000F702F0E0E952FD4F108285ED8093BC00A7
:101620008091BC0084FDFCCF10928B026091F70288
:10163000E0919102F091920287ED92E070E00995BD
:101640001092F7022DC084E080938B021092D50295
:101650001092D602E0918F02F0919002099580914C
:10166000D602882329F481E08093D6021092B50235
:101670009091D502E92FF0E0EB54FD4F80818093EB
:10168000BB009F5F9093D5029091D5028091D602C6
:10169000981710F485EC01C085E88093BC000FC05A
:1016A00085EC8093BC0009C01092F80285ED809310
:1016B000BC008091BC0084FDFCCF10928B02FF9196
:1016C000EF91BF91AF919F918F917F916F915F91BA
:1016D0004F913F912F910F900FBE0F901F90189533
:1016E00010928B0281E080938D0210928E0282E133
:1016F00061E00E94780F83E161E00E94780FE9EBDE
:10170000F0E080818E7F808380818D7F808380E286
:101710008093B80085E48093BC000895FC01608349
:1017200080EE9EE2A5E6B2E4828F938FA48FB58F00
:101730000895FC01838194810895FC01858196813F
:101740000895FC01878190850895EF92FF920F9391
:101750001F93CF93DF93EC018FE792E068810E94A3
:1017600041088FE792E060E00E94C3088FE792E0B3
:1017700060E00E94F30868818D85882311F444E0BD
:1017800001C047E08FE792E00E9417098FE792E0DF
:101790000E944B08892B09F4C5C08FE792E00E9494
:1017A000540889838D85882309F461C08FE792E00E
:1017B0000E945408182F8FE792E00E945408312F9E
:1017C00020E0280F391F3C832B83C90160E470E0BF
:1017D0000E94E817882777FD8095982F0E94A6160B
:1017E00029853A854B855C850E945A176E877F87CD
:1017F000888B998B8FE792E00E945408182F8FE70F
:1018000092E00E945408312F20E0280F391F3E83B8
:101810002D83C90160E470E00E94E817882777FDF6
:101820008095982F0E94A61629853A854B855C8560
:101830000E945A176A8B7B8B8C8B9D8B8FE792E073
:101840000E945408182F8FE792E00E945408312F0D
:1018500020E0280F391F38872F83C90160E470E02A
:101860000E94E817882777FD8095982F4FC08FE753
:1018700092E00E945408982F80E060E071E00E949E
:10188000E8177C836B838FE792E00E945408982FBF
:1018900080E060E071E00E94E8177E836D838FE74F
:1018A00092E00E945408982F80E060E071E00E946E
:1018B000E8177B0178876F836B817C81882777FDB0
:1018C0008095982F0E94A61629853A854B855C85C0
:1018D0000E945A176E877F87888B998B6D817E81D6
:1018E000882777FD8095982F0E94A61629853A852E
:1018F0004B855C850E945A176A8B7B8B8C8B9D8BEA
:101900000027F7FC0095102FC801B7010E94A6160A
:1019100029853A854B855C850E945A176E8B7F8B93
:10192000888F998FDF91CF911F910F91FF90EF904A
:101930000895FF920F931F938C01F62E8FE792E08C
:10194000F80160810E9441088FE792E06F2D0E94AC
:10195000C3088FE792E060E00E94F3088FE792E00F
:10196000F801608141E00E9417098FE792E00E9430
:101970004B08892B11F480E004C08FE792E00E94AD
:1019800054081F910F91FF9008951F93CF93DF93F9
:10199000EC018FE792E068810E9441088FE792E0B6
:1019A0006AE20E94C3088FE792E00E9406098FE76F
:1019B00092E0688141E00E9417098FE792E00E945F
:1019C0004B08892B11F410E005C08FE792E00E94CC
:1019D0005408182F8FE792E068810E9441088FE732
:1019E00092E06AE20E94C3088D85882319F482E0A0
:1019F00090E002C080E090E01160612F70E06861CB
:101A0000682B792B8FE792E00E94C3088FE792E062
:101A10000E940609DF91CF911F9108951F93CF93E4
:101A2000DF93EC018FE792E068810E9441088FE725
:101A300092E06AE20E94C3088FE792E00E940609E2
:101A40008FE792E0688141E00E9417098FE792E0FA
:101A50000E944B08892B11F410E005C08FE792E03B
:101A60000E945408182F8FE792E068810E94410875
:101A70008FE792E06AE20E94C308612F70E06E7FF8
:101A80008FE792E00E94C3088FE792E00E94060968
:101A9000DF91CF911F910895CF93DF93EC016D8774
:101AA0004A83662329F424E237E94FE75CE304C064
:101AB00024E237E94FE75BE329873A874B875C8766
:101AC0008A81843029F4CA01B9010E94A7150AC08D
:101AD000883061F4CA01B90120E030E040E850E408
:101AE0000E945A1769877A878B879C87CE016DE0A1
:101AF0000E94990C8FE792E068810E9441088FE76D
:101B000092E06BE20E94C3088FE792E060E40E94DB
:101B1000C3088FE792E00E9406096AE070E080E067
:101B200090E00E94230ECE010E940E0D8FE792E0FE
:101B300068810E9441088FE792E061E10E94C3083A
:101B40008FE792E060EC0E94C3088FE792E00E946A
:101B500006098FE792E068810E9441088FE792E0D2
:101B60006EE00E94C3088A81843019F461E070E05D
:101B700004C0883029F462E070E08FE792E003C08F
:101B80008FE792E060E00E94C3088FE792E00E9436
:101B90000609CE010E94C50CDF91CF9108951F92D6
:101BA0000F920FB60F9211242F933F934F935F9391
:101BB0006F937F938F939F93AF93BF932091FD0279
:101BC0003091FE024091FF02509100037091010399
:101BD000DA01C9010296A11DB11D672F6A5F6D3739
:101BE00030F06D57DA01C9010396A11DB11D609354
:101BF00001038093FD029093FE02A093FF02B09335
:101C000000038091F9029091FA02A091FB02B09139
:101C1000FC020196A11DB11D8093F9029093FA0276
:101C2000A093FB02B093FC02BF91AF919F918F9163
:101C30007F916F915F914F913F912F910F900FBEC8
:101C40000F901F9018959B01AC017FB7F89480917D
:101C5000F9029091FA02A091FB02B091FC0266B5E4
:101C6000A89B05C06F3F19F00196A11DB11D7FBF54
:101C7000BA2FA92F982F8827860F911DA11DB11D5E
:101C800063E0880F991FAA1FBB1F6A95D1F7BC019B
:101C90002DC0FFB7F8948091F9029091FA02A091BB
:101CA000FB02B091FC02E6B5A89B05C0EF3F19F01E
:101CB0000196A11DB11DFFBFBA2FA92F982F88270C
:101CC0008E0F911DA11DB11DE3E0880F991FAA1F62
:101CD000BB1FEA95D1F7861B970B885E9340C8F22D
:101CE000215030404040504068517C4F2115310513
:101CF0004105510571F60895789484B5826084BDDC
:101D000084B5816084BD85B5826085BD85B58160FF
:101D100085BDEEE6F0E0808181608083E1E8F0E05F
:101D20001082808182608083808181608083E0E88E
:101D3000F0E0808181608083E1EBF0E0808184606D
:101D40008083E0EBF0E0808181608083EAE7F0E06F
:101D500080818460808380818260808380818160D3
:101D600080838081806880831092C1000895982FBD
:101D70008E3008F09E509770809100018295880FF8
:101D8000880F807C892B80937C0080917A0080640E
:101D900080937A0080917A0086FDFCCF20917800B4
:101DA00040917900942F80E030E0282B392BC90135
:101DB00008951F93CF93DF93182FEB0161E00E94EA
:101DC000390F209709F44AC0CF3FD10509F449C023
:101DD000E12FF0E0E255FF4F84918330C1F0843071
:101DE00028F4813051F08230B1F50CC0863019F101
:101DF000873049F1843079F514C084B5806884BD9A
:101E0000C7BD33C084B5806284BDC8BD2EC080917B
:101E10008000806880938000D0938900C093880000
:101E200024C080918000806280938000D0938B00DA
:101E3000C0938A001AC08091B00080688093B0007F
:101E4000C093B30012C08091B00080628093B00054
:101E5000C093B4000AC0C038D1051CF4812F60E0E3
:101E600002C0812F61E00E94780FDF91CF911F9116
:101E70000895CF93DF93482F50E0CA0186569F4FB5
:101E8000FC0134914A575F4FFA018491882369F12C
:101E900090E0880F991FFC01E859FF4FA591B4917C
:101EA000FC01EE58FF4FC591D491662351F42FB732
:101EB000F8948C91932F909589238C938881892312
:101EC0000BC0623061F42FB7F8948C91932F9095EA
:101ED00089238C938881832B88832FBF06C09FB76B
:101EE000F8948C91832B8C939FBFDF91CF910895B1
:101EF000482F50E0CA0182559F4FFC012491CA012E
:101F000086569F4FFC0194914A575F4FFA013491D6
:101F1000332309F440C0222351F1233071F02430DF
:101F200028F42130A1F0223011F514C02630B1F090
:101F30002730C1F02430D9F404C0809180008F771D
:101F400003C0809180008F7D8093800010C084B595
:101F50008F7702C084B58F7D84BD09C08091B000A9
:101F60008F7703C08091B0008F7D8093B000E32F06
:101F7000F0E0EE0FFF1FEE58FF4FA591B4912FB781
:101F8000F894662321F48C919095892302C08C915A
:101F9000892B8C932FBF0895682F70E0CB01825559
:101FA0009F4FFC012491CB0186569F4FFC01449129
:101FB0006A577F4FFB019491992319F420E030E098
:101FC0003CC0222351F1233071F0243028F4213019
:101FD000A1F0223011F514C02630B1F02730C1F045
:101FE0002430D9F404C0809180008F7703C08091A1
:101FF00080008F7D8093800010C084B58F7702C0F1
:1020000084B58F7D84BD09C08091B0008F7703C0F7
:102010008091B0008F7D8093B000892F90E0880F71
:10202000991F84589F4FFC01A591B4918C9120E099
:1020300030E0842311F021E030E0C90108950895D3
:102040001F920F920FB60F9211242F933F934F932D
:102050008F939F93EF93FF934091C600209142038B
:10206000309143032F5F3F4F2F73307080914403B3
:10207000909145032817390759F0E0914203F091F8
:102080004303EE5FFC4F40833093430320934203AE
:10209000FF91EF919F918F914F913F912F910F90D1
:1020A0000FBE0F901F901895E0919603F091970343
:1020B000E05CFF4F8191919120813181821B930BD4
:1020C0008F739070892B11F00E941F1008951F923A
:1020D0000F920FB60F9211242F933F938F939F93DC
:1020E000EF93FF93209186033091870380918803BB
:1020F000909189032817390731F48091C1008F7DB1
:102100008093C10014C0E0918803F0918903EA5BD9
:10211000FC4F2081809188039091890301968F73F1
:10212000907090938903809388032093C600FF9159
:10213000EF919F918F913F912F910F900FBE0F9034
:102140001F901895AF92BF92DF92EF92FF920F937C
:102150001F93CF93DF93EC017A018B01DD24D3949D
:1021600091E0A92EB12CEC89FD89DD2069F0C50133
:102170000E8C02C0880F991F0A94E2F7808360E8F2
:1021800074E88EE190E005C0108260E472E48FE0B4
:1021900090E0A80197010E94FB1721503040404079
:1021A0005040569547953795279580E12030380760
:1021B00020F0DD2011F0DD24D6CFE889F9893083C5
:1021C000EA89FB892083EE89FF89408121E030E0A4
:1021D000C9010A8C02C0880F991F0A94E2F7482BA4
:1021E0004083EE89FF894081C9010B8C02C0880FB2
:1021F000991F0A94E2F7482B4083EE89FF894081BA
:10220000C9010C8C02C0880F991F0A94E2F7482B71
:102210004083EE89FF8980810D8C02C0220F331F1D
:102220000A94E2F7209528232083DF91CF911F9114
:102230000F91FF90EF90DF90BF90AF900895CF93F4
:10224000DF93DC011E968D919C911F97EC01C05C81
:10225000DF4FFC01EE5BFF4F288139818081918146
:1022600028173907C9F75696ED91FC915797408189
:1022700021E030E0C9015A960C905A9702C0880FAD
:10228000991F0A94E2F78095842380835696ED91F6
:10229000FC9157974081C9015B960C905B9702C0F7
:1022A000880F991F0A94E2F78095842380835696BD
:1022B000ED91FC9157974081C9015C960C905C9719
:1022C00002C0880F991F0A94E2F7809584238083C7
:1022D0005696ED91FC91579780815D960C905D9795
:1022E00002C0220F331F0A94E2F72095282320838F
:1022F0001C96ED91FC911D97EE5BFF4F80819181C3
:1023000092938293DF91CF910895DC011C96ED9119
:10231000FC911D97E05CFF4F21913191808191816B
:10232000281B390B2F733070C9010895DC011C96EE
:10233000ED91FC911D97E05CFF4F20813181E054CD
:10234000F040DF01AE5BBF4F8D919C911197281734
:10235000390719F42FEF3FEF07C08D919C91E80FDB
:10236000F91F8081282F30E0C9010895DC011C96F7
:10237000ED91FC911D97E05CFF4F20813181E0548D
:10238000F040DF01AE5BBF4F8D919C9111972817F4
:10239000390719F42FEF3FEF10C08D919C911197E1
:1023A000E80FF91F20818D919C91119701968F73F1
:1023B000907011969C938E9330E0C9010895FC01B2
:1023C00086859785DC01A05CBF4FFC01EE5BFF4F6B
:1023D0002D913C9111978081918128173907C1F780
:1023E0000895CF93DF93EC01EE85FF85E05CFF4F0E
:1023F00020813181E054F0402F5F3F4F2F733070C8
:10240000DF01AE5BBF4F8D919C9111972817390763
:10241000D1F3E05CFF4F80819181E054F040E80F00
:10242000F91F6083EE85FF85E05CFF4F31832083D9
:10243000EE89FF89208181E090E00D8C02C0880F39
:10244000991F0A94E2F7282B208381E090E0DF9126
:10245000CF91089510928D0310928C0388EE93E033
:10246000A0E0B0E080938E0390938F03A09390033D
:10247000B093910382EB91E090938B0380938A0356
:1024800082E093E0909397038093960386E493E031
:10249000909399038093980385EC90E090939B032D
:1024A00080939A0384EC90E090939D0380939C0327
:1024B00080EC90E090939F0380939E0381EC90E0EA
:1024C0009093A1038093A00386EC90E09093A303E4
:1024D0008093A20384E08093A40383E08093A50308
:1024E00087E08093A60385E08093A70381E0809333
:1024F000A8030895CF93DF930E947C0E0E948F055E
:10250000C4E5D0E10E9465042097E1F30E945410D5
:10251000F9CFCF92DF92EF92FF920F931F93CF9359
:10252000DF937C016B018A01C0E0D0E00FC0D601CF
:102530006D916D01D701ED91FC910190F081E02D3D
:10254000C7010995C80FD91F015010400115110589
:1025500071F7CE01DF91CF911F910F91FF90EF9016
:10256000DF90CF900895813041F0813018F08230B3
:10257000D1F409C010926E00089580916F008D7F94
:1025800080936F000895809170008D7F809370001C
:1025900081E08093B0008091B100887F8460809357
:1025A000B1001092B30008951F93182F809101017C
:1025B000811711F09FEF06C0E2ECF0E094918FEFED
:1025C00080930101892F0E94B312812F60E00E9445
:1025D000780F1F9108951F920F920FB60F9211243A
:1025E0002F933F934F935F936F937F938F939F931B
:1025F000AF93BF93EF93FF938091B7039091B8038C
:10260000A091B903B091BA030097A105B10551F1AA
:10261000E091BB03F091BC0380819091BD038927B9
:1026200080838091B7039091B803A091B903B091D2
:10263000BA03181619061A061B06C4F48091B703CC
:102640009091B803A091B903B091BA030197A10981
:10265000B1098093B7039093B803A093B903B093E3
:10266000BA0304C0809101010E94D412FF91EF913E
:10267000BF91AF919F918F917F916F915F914F919A
:102680003F912F910F900FBE0F901F9018952F9292
:102690003F925F926F927F928F929F92AF92BF9282
:1026A000CF92DF92EF92FF920F931F93DF93CF931E
:1026B00000D000D0CDB7DEB7A82F1B0129833A8305
:1026C0004B835C83809101018A1721F4E2ECF0E0F6
:1026D000549082C08F3F09F0DAC1A0930101E2EC6F
:1026E000F0E054902FEF521609F4D1C181E0581652
:1026F00039F192E0591609F449C0552009F06CC02F
:1027000014BC15BC84B5826084BD85B5816085BD6F
:102710002A2F30E0F901EA57FF4FE491F0E0EE0F85
:10272000FF1FEE58FF4F859194919093AE038093D5
:10273000AD0326563F4FF90184918093AF034EC0FD
:1027400010928000109281008091810088608093B7
:102750008100809181008160809381002A2F30E088
:10276000F901EA57FF4FE491F0E0EE0FFF1FEE583A
:10277000FF4F859194919093B5038093B4032656AF
:102780003F4FF90184918093B60328C01092B000A6
:102790001092B1008091B00082608093B00080916F
:1027A000B10081608093B1002A2F30E0F901EA572F
:1027B000FF4FE491F0E0EE0FFF1FEE58FF4F8591C1
:1027C00094919093BC038093BB0326563F4FF9012D
:1027D00084918093BD0302C057FC59C18A2F61E0E8
:1027E0000E94390F552021F0F2E05F1609F0BEC0BB
:1027F00031018824992460E079E08DE390E0A40120
:1028000093010E941D1859016A01860175010894FF
:10281000E108F108010911092FEFE216F1040105A1
:10282000110509F008F499C060E271EA87E090E0D0
:10283000A40193010E941D1879018A010894E108FE
:10284000F1080109110982E05816C1F49FEFE91659
:10285000F1040105110509F008F484C068E478EE7C
:1028600081E090E0A40193010E941D1879018A0182
:102870000894E108F1080109110983E0AFEFEA16B5
:10288000F1040105110509F008F468C064E274EF71
:1028900080E090E0A40193010E941D1879018A0153
:1028A0000894E108F10801091109552011F483E0A9
:1028B0001DC0B2E05B1611F084E018C0EFEFEE1619
:1028C000F1040105110509F008F4DFC062E17AE7BF
:1028D00080E090E0A40193010E941D1879018A0113
:1028E0000894E108F1080109110985E0FFEFEF16EE
:1028F000F1040105110591F188F169E07DE380E0C3
:1029000090E0A40193010E941D1879018A010894A6
:10291000E108F10801091109552011F086E001C014
:1029200084E02FEFE216F10401051105B9F0B0F0D3
:10293000C601B50120E034E040E050E00E941D18DF
:1029400079018A010894E108F1080109110955206B
:1029500011F087E008C085E003C081E0552019F43C
:1029600085BD3AC082E08093B10036C05101CC24CD
:10297000DD2460E079E08DE390E0A60195010E94FE
:102980001D1879018A010894E108F108010911096B
:1029900080E0E81680E0F80681E0080780E018078C
:1029A00010F491E010C064E274EF80E090E0A601C2
:1029B00095010E941D1879018A010894E108F10827
:1029C0000109110993E0A1E05A1631F480918100C8
:1029D000887F982B9093810089819A81AB81BC81FB
:1029E0000097A105B10529F48FEF9FEFAFEFBFEF7F
:1029F00013C0220C331CB10180E090E029813A81A0
:102A00004B815C810E94BD1728EE33E040E050E02E
:102A10000E94FB17C901DA01E1E05E16A1F0F2E0C5
:102A20005F1619F1552099F5E7BC8093A90390939F
:102A3000AA03A093AB03B093AC0380916E008260B5
:102A400080936E0024C0F0928900E0928800809309
:102A5000B0039093B103A093B203B093B3038091FA
:102A60006F00826080936F0012C0E092B300809389
:102A7000B7039093B803A093B903B093BA038091BE
:102A8000700082608093700002C084E06CCF0F9071
:102A90000F900F900F90CF91DF911F910F91FF90AA
:102AA000EF90DF90CF90BF90AF909F908F907F90EE
:102AB0006F905F903F902F9008952F923F924F928A
:102AC0005F926F927F928F929F92AF92BF92CF92BE
:102AD000DF92EF92FF920F931F93DF93CF93CDB7C7
:102AE000DEB73B014C0119012A016D897E898F896E
:102AF000988D6A197B098C099D09621A730A840AE8
:102B0000950AA40193010E94BD17E218F308040975
:102B10001509A80197010E941D182A0D3B1D4C1D87
:102B20005D1DB901CA01CF91DF911F910F91FF90F7
:102B3000EF90DF90CF90BF90AF909F908F907F905D
:102B40006F905F904F903F902F9008955058BB2703
:102B5000AA270ED071C162D130F067D120F031F4D4
:102B60009F3F11F41EF457C10EF4E095E7FB4DC1F1
:102B7000E92F73D180F3BA176207730784079507AB
:102B800018F071F49EF58BC10EF4E0950B2EBA2F60
:102B9000A02D0B01B90190010C01CA01A001112463
:102BA000FF27591B99F0593F50F4503E68F11A160F
:102BB000F040A22F232F342F4427585FF3CF4695A0
:102BC00037952795A795F0405395C9F77EF41F16C2
:102BD000BA0B620B730B840BBAF09150A1F0FF0F8C
:102BE000BB1F661F771F881FC2F70EC0BA0F621F78
:102BF000731F841F48F4879577956795B795F79568
:102C00009E3F08F0B3CF9395880F08F09927EE0FF9
:102C10009795879508950CD00FC107D140F0FED04D
:102C200030F021F45F3F19F0F0C0511139C1F3C009
:102C300014D198F39923C9F35523B1F3951B550B80
:102C4000BB27AA2762177307840738F09F5F5F4F7F
:102C5000220F331F441FAA1FA9F333D00E2E3AF0C0
:102C6000E0E830D091505040E695001CCAF729D0DA
:102C7000FE2F27D0660F771F881FBB1F2617370729
:102C80004807AB07B0E809F0BB0B802DBF01FF2759
:102C900093585F4F2AF09E3F510568F0B6C000C1BF
:102CA0005F3FECF3983EDCF3869577956795B79593
:102CB000F7959F5FC9F7880F911D9695879597F9AE
:102CC0000895E1E0660F771F881FBB1F6217730727
:102CD0008407BA0720F0621B730B840BBA0BEE1F3C
:102CE00088F7E095089504D06894B111D9C008958B
:102CF000BCD088F09F5790F0B92F9927B751A0F01A
:102D0000D1F0660F771F881F991F1AF0BA95C9F77F
:102D100012C0B13081F0C3D0B1E00895C0C0672FB8
:102D2000782F8827B85F39F0B93FCCF3869577952F
:102D30006795B395D9F73EF4909580957095619518
:102D40007F4F8F4F9F4F0895E89409C097FB3EF443
:102D500090958095709561957F4F8F4F9F4F9923E8
:102D6000A9F0F92F96E9BB279395F6958795779566
:102D70006795B795F111F8CFFAF4BB0F11F460FF26
:102D80001BC06F5F7F4F8F4F9F4F16C0882311F07E
:102D900096E911C0772321F09EE8872F762F05C092
:102DA000662371F096E8862F70E060E02AF09A952D
:102DB000660F771F881FDAF7880F9695879597F922
:102DC0000895990F0008550FAA0BE0E8FEEF1616BC
:102DD0001706E807F907C0F012161306E407F5070F
:102DE00098F0621B730B840B950B39F40A2661F083
:102DF000232B242B252B21F408950A2609F4A14026
:102E0000A6958FEF811D811D089597F99F6780E832
:102E100070E060E008959FEF80EC089500240A942C
:102E20001616170618060906089500240A941216A5
:102E30001306140605060895092E0394000C11F4D8
:102E4000882352F0BB0F40F4BF2B11F460FF04C085
:102E50006F5F7F4F8F4F9F4F089557FD9058440FDE
:102E6000551F59F05F3F71F04795880F97FB991FE9
:102E700061F09F3F79F087950895121613061406A6
:102E8000551FF2CF4695F1DF08C016161706180633
:102E9000991FF1CF86957105610508940895E8940E
:102EA000BB2766277727CB0197F908958ADF08F4B7
:102EB0008FEF08950BD0C0CFB1DF28F0B6DF18F048
:102EC000952309F0A2CFA7CF1124EACFC6DFA0F344
:102ED000959FD1F3950F50E0551F629FF001729FAF
:102EE000BB27F00DB11D639FAA27F00DB11DAA1FCE
:102EF000649F6627B00DA11D661F829F2227B00D1B
:102F0000A11D621F739FB00DA11D621F839FA00DA5
:102F1000611D221F749F3327A00D611D231F849FF5
:102F2000600D211D822F762F6A2F11249F5750404C
:102F30008AF0E1F088234AF0EE0FFF1FBB1F661FE7
:102F4000771F881F91505040A9F79E3F510570F0A0
:102F50005CCFA6CF5F3FECF3983EDCF38695779588
:102F60006795B795F795E7959F5FC1F7FE2B880F9B
:102F7000911D9695879597F90895629FD001739F4B
:102F8000F001829FE00DF11D649FE00DF11D929F05
:102F9000F00D839FF00D749FF00D659FF00D992744
:102FA000729FB00DE11DF91F639FB00DE11DF91F68
:102FB000BD01CF0111240895991B79E004C0991F28
:102FC000961708F0961B881F7A95C9F78095089583
:102FD00097FB092E07260AD077FD04D049D006D0EA
:102FE00000201AF4709561957F4F0895F6F790953B
:102FF00081959F4F0895A1E21A2EAA1BBB1BFD01CC
:103000000DC0AA1FBB1FEE1FFF1FA217B307E407C7
:10301000F50720F0A21BB30BE40BF50B661F771F1F
:10302000881F991F1A9469F76095709580959095FF
:103030009B01AC01BD01CF01089597FB092E052628
:103040000ED057FD04D0D7DF0AD0001C38F45095BD
:103050004095309521953F4F4F4F5F4F0895F6F7BC
:1030600090958095709561957F4F8F4F9F4F0895F4
:10307000AA1BBB1B51E107C0AA1FBB1FA617B7079E
:1030800010F0A61BB70B881F991F5A95A9F78095BA
:103090009095BC01CD010895EE0FFF1F0590F491AE
:0830A000E02D0994F894FFCF24
:1030A80001FF0E0F1011121382008B0093009C0079
:1030B800A500AF00B900C400D000DC00E900F700AB
:1030C80006011501260137014A015D0172018801D7
:1030D8009F01B801D201EE010B022A024B026E02D7
:1030E8009302BA02E40210033F037003A403DC0353
:1030F800170455049704DD0427057505C80520063F
:103108007D06E0064907B8072D08A9082D09B90961
:103118004D0AEA0A900B400CFA0CC00D910E6F0F85
:103128005A100E0F101112130E0F10111213020461
:103138000708090A0B0C0001020304050607000032
:103148000000C30892084B08540869087A08000070
:0E3158000000F11189128511B6119611DF11D8
:00000001FF
